{
  "_format": "hh-sol-artifact-1",
  "contractName": "XCoinStaking",
  "sourceName": "contracts/XCoinStaking.sol",
  "abi": [
    {
      "inputs": [
        {
          "internalType": "uint256",
          "name": "_supply",
          "type": "uint256"
        }
      ],
      "stateMutability": "nonpayable",
      "type": "constructor"
    },
    {
      "anonymous": false,
      "inputs": [
        {
          "indexed": true,
          "internalType": "address",
          "name": "owner",
          "type": "address"
        },
        {
          "indexed": true,
          "internalType": "address",
          "name": "spender",
          "type": "address"
        },
        {
          "indexed": false,
          "internalType": "uint256",
          "name": "value",
          "type": "uint256"
        }
      ],
      "name": "Approval",
      "type": "event"
    },
    {
      "anonymous": false,
      "inputs": [
        {
          "indexed": true,
          "internalType": "address",
          "name": "previousOwner",
          "type": "address"
        },
        {
          "indexed": true,
          "internalType": "address",
          "name": "newOwner",
          "type": "address"
        }
      ],
      "name": "OwnershipTransferred",
      "type": "event"
    },
    {
      "anonymous": false,
      "inputs": [
        {
          "indexed": false,
          "internalType": "address",
          "name": "sender",
          "type": "address"
        }
      ],
      "name": "StakeAdded",
      "type": "event"
    },
    {
      "anonymous": false,
      "inputs": [
        {
          "indexed": true,
          "internalType": "address",
          "name": "from",
          "type": "address"
        },
        {
          "indexed": true,
          "internalType": "address",
          "name": "to",
          "type": "address"
        },
        {
          "indexed": false,
          "internalType": "uint256",
          "name": "value",
          "type": "uint256"
        }
      ],
      "name": "Transfer",
      "type": "event"
    },
    {
      "inputs": [
        {
          "internalType": "address",
          "name": "_stakeholder",
          "type": "address"
        }
      ],
      "name": "addStakeholder",
      "outputs": [],
      "stateMutability": "nonpayable",
      "type": "function"
    },
    {
      "inputs": [
        {
          "internalType": "address",
          "name": "owner",
          "type": "address"
        },
        {
          "internalType": "address",
          "name": "spender",
          "type": "address"
        }
      ],
      "name": "allowance",
      "outputs": [
        {
          "internalType": "uint256",
          "name": "",
          "type": "uint256"
        }
      ],
      "stateMutability": "view",
      "type": "function"
    },
    {
      "inputs": [
        {
          "internalType": "address",
          "name": "spender",
          "type": "address"
        },
        {
          "internalType": "uint256",
          "name": "amount",
          "type": "uint256"
        }
      ],
      "name": "approve",
      "outputs": [
        {
          "internalType": "bool",
          "name": "",
          "type": "bool"
        }
      ],
      "stateMutability": "nonpayable",
      "type": "function"
    },
    {
      "inputs": [
        {
          "internalType": "address",
          "name": "account",
          "type": "address"
        }
      ],
      "name": "balanceOf",
      "outputs": [
        {
          "internalType": "uint256",
          "name": "",
          "type": "uint256"
        }
      ],
      "stateMutability": "view",
      "type": "function"
    },
    {
      "inputs": [
        {
          "internalType": "address",
          "name": "_stakeholder",
          "type": "address"
        }
      ],
      "name": "calculateReward",
      "outputs": [
        {
          "internalType": "uint256",
          "name": "",
          "type": "uint256"
        }
      ],
      "stateMutability": "view",
      "type": "function"
    },
    {
      "inputs": [],
      "name": "claim",
      "outputs": [],
      "stateMutability": "nonpayable",
      "type": "function"
    },
    {
      "inputs": [],
      "name": "decimals",
      "outputs": [
        {
          "internalType": "uint8",
          "name": "",
          "type": "uint8"
        }
      ],
      "stateMutability": "view",
      "type": "function"
    },
    {
      "inputs": [
        {
          "internalType": "address",
          "name": "spender",
          "type": "address"
        },
        {
          "internalType": "uint256",
          "name": "subtractedValue",
          "type": "uint256"
        }
      ],
      "name": "decreaseAllowance",
      "outputs": [
        {
          "internalType": "bool",
          "name": "",
          "type": "bool"
        }
      ],
      "stateMutability": "nonpayable",
      "type": "function"
    },
    {
      "inputs": [],
      "name": "distributeRewards",
      "outputs": [],
      "stateMutability": "nonpayable",
      "type": "function"
    },
    {
      "inputs": [],
      "name": "getMyStakesNumber",
      "outputs": [
        {
          "internalType": "uint256",
          "name": "",
          "type": "uint256"
        }
      ],
      "stateMutability": "view",
      "type": "function"
    },
    {
      "inputs": [
        {
          "internalType": "uint256",
          "name": "index",
          "type": "uint256"
        }
      ],
      "name": "getStakeInfo",
      "outputs": [
        {
          "internalType": "uint256",
          "name": "",
          "type": "uint256"
        }
      ],
      "stateMutability": "view",
      "type": "function"
    },
    {
      "inputs": [
        {
          "internalType": "address",
          "name": "_stakeholder",
          "type": "address"
        }
      ],
      "name": "getTotalStakedAmount",
      "outputs": [
        {
          "internalType": "uint256",
          "name": "",
          "type": "uint256"
        }
      ],
      "stateMutability": "view",
      "type": "function"
    },
    {
      "inputs": [],
      "name": "getUser",
      "outputs": [
        {
          "internalType": "address",
          "name": "",
          "type": "address"
        }
      ],
      "stateMutability": "view",
      "type": "function"
    },
    {
      "inputs": [
        {
          "internalType": "address",
          "name": "spender",
          "type": "address"
        },
        {
          "internalType": "uint256",
          "name": "addedValue",
          "type": "uint256"
        }
      ],
      "name": "increaseAllowance",
      "outputs": [
        {
          "internalType": "bool",
          "name": "",
          "type": "bool"
        }
      ],
      "stateMutability": "nonpayable",
      "type": "function"
    },
    {
      "inputs": [
        {
          "internalType": "address",
          "name": "_address",
          "type": "address"
        }
      ],
      "name": "isStakeholder",
      "outputs": [
        {
          "internalType": "bool",
          "name": "",
          "type": "bool"
        },
        {
          "internalType": "uint256",
          "name": "",
          "type": "uint256"
        }
      ],
      "stateMutability": "view",
      "type": "function"
    },
    {
      "inputs": [],
      "name": "name",
      "outputs": [
        {
          "internalType": "string",
          "name": "",
          "type": "string"
        }
      ],
      "stateMutability": "view",
      "type": "function"
    },
    {
      "inputs": [],
      "name": "owner",
      "outputs": [
        {
          "internalType": "address",
          "name": "",
          "type": "address"
        }
      ],
      "stateMutability": "view",
      "type": "function"
    },
    {
      "inputs": [
        {
          "internalType": "address",
          "name": "_stakeholder",
          "type": "address"
        }
      ],
      "name": "removeStakeholder",
      "outputs": [],
      "stateMutability": "nonpayable",
      "type": "function"
    },
    {
      "inputs": [],
      "name": "renounceOwnership",
      "outputs": [],
      "stateMutability": "nonpayable",
      "type": "function"
    },
    {
      "inputs": [
        {
          "internalType": "address",
          "name": "_stakeholder",
          "type": "address"
        }
      ],
      "name": "rewardOf",
      "outputs": [
        {
          "internalType": "uint256",
          "name": "",
          "type": "uint256"
        }
      ],
      "stateMutability": "view",
      "type": "function"
    },
    {
      "inputs": [
        {
          "internalType": "uint256",
          "name": "_stake",
          "type": "uint256"
        }
      ],
      "name": "stake",
      "outputs": [],
      "stateMutability": "nonpayable",
      "type": "function"
    },
    {
      "inputs": [],
      "name": "symbol",
      "outputs": [
        {
          "internalType": "string",
          "name": "",
          "type": "string"
        }
      ],
      "stateMutability": "view",
      "type": "function"
    },
    {
      "inputs": [],
      "name": "totalStakes",
      "outputs": [
        {
          "internalType": "uint256",
          "name": "",
          "type": "uint256"
        }
      ],
      "stateMutability": "view",
      "type": "function"
    },
    {
      "inputs": [],
      "name": "totalSupply",
      "outputs": [
        {
          "internalType": "uint256",
          "name": "",
          "type": "uint256"
        }
      ],
      "stateMutability": "view",
      "type": "function"
    },
    {
      "inputs": [
        {
          "internalType": "address",
          "name": "to",
          "type": "address"
        },
        {
          "internalType": "uint256",
          "name": "amount",
          "type": "uint256"
        }
      ],
      "name": "transfer",
      "outputs": [
        {
          "internalType": "bool",
          "name": "",
          "type": "bool"
        }
      ],
      "stateMutability": "nonpayable",
      "type": "function"
    },
    {
      "inputs": [
        {
          "internalType": "address",
          "name": "from",
          "type": "address"
        },
        {
          "internalType": "address",
          "name": "to",
          "type": "address"
        },
        {
          "internalType": "uint256",
          "name": "amount",
          "type": "uint256"
        }
      ],
      "name": "transferFrom",
      "outputs": [
        {
          "internalType": "bool",
          "name": "",
          "type": "bool"
        }
      ],
      "stateMutability": "nonpayable",
      "type": "function"
    },
    {
      "inputs": [
        {
          "internalType": "address",
          "name": "newOwner",
          "type": "address"
        }
      ],
      "name": "transferOwnership",
      "outputs": [],
      "stateMutability": "nonpayable",
      "type": "function"
    },
    {
      "inputs": [
        {
          "internalType": "uint256",
          "name": "_stakeIndex",
          "type": "uint256"
        }
      ],
      "name": "withdrawStake",
      "outputs": [],
      "stateMutability": "nonpayable",
      "type": "function"
    }
  ],
  "bytecode": "0x608060405260016006553480156200001657600080fd5b50604051620031733803806200317383398181016040528101906200003c91906200042d565b6040518060400160405280600581526020017f78436f696e0000000000000000000000000000000000000000000000000000008152506040518060400160405280600581526020017f78436f696e0000000000000000000000000000000000000000000000000000008152508160039080519060200190620000c092919062000366565b508060049080519060200190620000d992919062000366565b505050620000fc620000f06200011560201b60201c565b6200011d60201b60201c565b6200010e3382620001e360201b60201c565b5062000611565b600033905090565b6000600560009054906101000a900473ffffffffffffffffffffffffffffffffffffffff16905081600560006101000a81548173ffffffffffffffffffffffffffffffffffffffff021916908373ffffffffffffffffffffffffffffffffffffffff1602179055508173ffffffffffffffffffffffffffffffffffffffff168173ffffffffffffffffffffffffffffffffffffffff167f8be0079c531659141344cd1fd0a4f28419497f9722a3daafe3b4186f6b6457e060405160405180910390a35050565b600073ffffffffffffffffffffffffffffffffffffffff168273ffffffffffffffffffffffffffffffffffffffff16141562000256576040517f08c379a00000000000000000000000000000000000000000000000000000000081526004016200024d90620004ac565b60405180910390fd5b6200026a600083836200035c60201b60201c565b80600260008282546200027e9190620004fc565b92505081905550806000808473ffffffffffffffffffffffffffffffffffffffff1673ffffffffffffffffffffffffffffffffffffffff1681526020019081526020016000206000828254620002d59190620004fc565b925050819055508173ffffffffffffffffffffffffffffffffffffffff16600073ffffffffffffffffffffffffffffffffffffffff167fddf252ad1be2c89b69c2b068fc378daa952ba7f163c4a11628f55a4df523b3ef836040516200033c9190620004ce565b60405180910390a362000358600083836200036160201b60201c565b5050565b505050565b505050565b828054620003749062000563565b90600052602060002090601f016020900481019282620003985760008555620003e4565b82601f10620003b357805160ff1916838001178555620003e4565b82800160010185558215620003e4579182015b82811115620003e3578251825591602001919060010190620003c6565b5b509050620003f39190620003f7565b5090565b5b8082111562000412576000816000905550600101620003f8565b5090565b6000815190506200042781620005f7565b92915050565b6000602082840312156200044057600080fd5b6000620004508482850162000416565b91505092915050565b600062000468601f83620004eb565b91507f45524332303a206d696e7420746f20746865207a65726f2061646472657373006000830152602082019050919050565b620004a68162000559565b82525050565b60006020820190508181036000830152620004c78162000459565b9050919050565b6000602082019050620004e560008301846200049b565b92915050565b600082825260208201905092915050565b6000620005098262000559565b9150620005168362000559565b9250827fffffffffffffffffffffffffffffffffffffffffffffffffffffffffffffffff038211156200054e576200054d62000599565b5b828201905092915050565b6000819050919050565b600060028204905060018216806200057c57607f821691505b60208210811415620005935762000592620005c8565b5b50919050565b7f4e487b7100000000000000000000000000000000000000000000000000000000600052601160045260246000fd5b7f4e487b7100000000000000000000000000000000000000000000000000000000600052602260045260246000fd5b620006028162000559565b81146200060e57600080fd5b50565b612b5280620006216000396000f3fe608060405234801561001057600080fd5b50600436106101c45760003560e01c8063832880e7116100f9578063bcb0c2d711610097578063dd62ed3e11610071578063dd62ed3e1461050b578063e5c42fd11461053b578063ef037b9014610557578063f2fde38b14610588576101c4565b8063bcb0c2d7146104a1578063bf9befb1146104bd578063d82e3962146104db576101c4565b8063a457c2d7116100d3578063a457c2d7146103f5578063a694fc3a14610425578063a9059cbb14610441578063b9bfb2a614610471576101c4565b8063832880e71461039b5780638da5cb5b146103b957806395d89b41146103d7576101c4565b8063313ce567116101665780636948f9c3116101405780636948f9c3146103395780636f4a2cd01461035757806370a0823114610361578063715018a614610391576101c4565b8063313ce567146102e157806339509351146102ff5780634e71d92d1461032f576101c4565b806318160ddd116101a257806318160ddd146102475780631d62ebd91461026557806323b872dd1461029557806325d5971f146102c5576101c4565b806306fdde03146101c9578063095ea7b3146101e75780630981348214610217575b600080fd5b6101d16105a4565b6040516101de919061268d565b60405180910390f35b61020160048036038101906101fc91906120fe565b610636565b60405161020e9190612649565b60405180910390f35b610231600480360381019061022c919061213a565b610659565b60405161023e919061282f565b60405180910390f35b61024f6106e4565b60405161025c919061282f565b60405180910390f35b61027f600480360381019061027a919061204a565b6106ee565b60405161028c919061282f565b60405180910390f35b6102af60048036038101906102aa91906120af565b610737565b6040516102bc9190612649565b60405180910390f35b6102df60048036038101906102da919061213a565b610766565b005b6102e9610a2f565b6040516102f6919061284a565b60405180910390f35b610319600480360381019061031491906120fe565b610a38565b6040516103269190612649565b60405180910390f35b610337610ae2565b005b610341610b78565b60405161034e919061282f565b60405180910390f35b61035f610bc2565b005b61037b6004803603810190610376919061204a565b610d6b565b604051610388919061282f565b60405180910390f35b610399610db3565b005b6103a3610e3b565b6040516103b0919061262e565b60405180910390f35b6103c1610e43565b6040516103ce919061262e565b60405180910390f35b6103df610e6d565b6040516103ec919061268d565b60405180910390f35b61040f600480360381019061040a91906120fe565b610eff565b60405161041c9190612649565b60405180910390f35b61043f600480360381019061043a919061213a565b610fe9565b005b61045b600480360381019061045691906120fe565b6110e8565b6040516104689190612649565b60405180910390f35b61048b6004803603810190610486919061204a565b61110b565b604051610498919061282f565b60405180910390f35b6104bb60048036038101906104b6919061204a565b61120c565b005b6104c561138d565b6040516104d2919061282f565b60405180910390f35b6104f560048036038101906104f0919061204a565b61143a565b604051610502919061282f565b60405180910390f35b61052560048036038101906105209190612073565b611465565b604051610532919061282f565b60405180910390f35b6105556004803603810190610550919061204a565b6114ec565b005b610571600480360381019061056c919061204a565b611567565b60405161057f929190612664565b60405180910390f35b6105a2600480360381019061059d919061204a565b611641565b005b6060600380546105b390612a1e565b80601f01602080910402602001604051908101604052809291908181526020018280546105df90612a1e565b801561062c5780601f106106015761010080835404028352916020019161062c565b820191906000526020600020905b81548152906001019060200180831161060f57829003601f168201915b5050505050905090565b600080610641611739565b905061064e818585611741565b600191505092915050565b6000600860003373ffffffffffffffffffffffffffffffffffffffff1673ffffffffffffffffffffffffffffffffffffffff16815260200190815260200160002082815481106106d2577f4e487b7100000000000000000000000000000000000000000000000000000000600052603260045260246000fd5b90600052602060002001549050919050565b6000600254905090565b6000600960008373ffffffffffffffffffffffffffffffffffffffff1673ffffffffffffffffffffffffffffffffffffffff168152602001908152602001600020549050919050565b600080610742611739565b905061074f85828561190c565b61075a858585611998565b60019150509392505050565b6000600860003373ffffffffffffffffffffffffffffffffffffffff1673ffffffffffffffffffffffffffffffffffffffff16815260200190815260200160002082815481106107df577f4e487b7100000000000000000000000000000000000000000000000000000000600052603260045260246000fd5b90600052602060002001549050600860003373ffffffffffffffffffffffffffffffffffffffff1673ffffffffffffffffffffffffffffffffffffffff1681526020019081526020016000206001600860003373ffffffffffffffffffffffffffffffffffffffff1673ffffffffffffffffffffffffffffffffffffffff1681526020019081526020016000208054905061087a9190612962565b815481106108b1577f4e487b7100000000000000000000000000000000000000000000000000000000600052603260045260246000fd5b9060005260206000200154600860003373ffffffffffffffffffffffffffffffffffffffff1673ffffffffffffffffffffffffffffffffffffffff1681526020019081526020016000208381548110610933577f4e487b7100000000000000000000000000000000000000000000000000000000600052603260045260246000fd5b9060005260206000200181905550600860003373ffffffffffffffffffffffffffffffffffffffff1673ffffffffffffffffffffffffffffffffffffffff1681526020019081526020016000208054806109b6577f4e487b7100000000000000000000000000000000000000000000000000000000600052603160045260246000fd5b600190038181906000526020600020016000905590556000600860003373ffffffffffffffffffffffffffffffffffffffff1673ffffffffffffffffffffffffffffffffffffffff168152602001908152602001600020805490501415610a2157610a203361120c565b5b610a2b3382611c19565b5050565b60006012905090565b600080610a43611739565b9050610ad7818585600160008673ffffffffffffffffffffffffffffffffffffffff1673ffffffffffffffffffffffffffffffffffffffff16815260200190815260200160002060008973ffffffffffffffffffffffffffffffffffffffff1673ffffffffffffffffffffffffffffffffffffffff16815260200190815260200160002054610ad29190612881565b611741565b600191505092915050565b6000600960003373ffffffffffffffffffffffffffffffffffffffff1673ffffffffffffffffffffffffffffffffffffffff1681526020019081526020016000205490506000600960003373ffffffffffffffffffffffffffffffffffffffff1673ffffffffffffffffffffffffffffffffffffffff16815260200190815260200160002081905550610b753382611c19565b50565b6000600860003373ffffffffffffffffffffffffffffffffffffffff1673ffffffffffffffffffffffffffffffffffffffff16815260200190815260200160002080549050905090565b610bca611739565b73ffffffffffffffffffffffffffffffffffffffff16610be8610e43565b73ffffffffffffffffffffffffffffffffffffffff1614610c3e576040517f08c379a0000000000000000000000000000000000000000000000000000000008152600401610c359061276f565b60405180910390fd5b60005b600780549050811015610d6857600060078281548110610c8a577f4e487b7100000000000000000000000000000000000000000000000000000000600052603260045260246000fd5b9060005260206000200160009054906101000a900473ffffffffffffffffffffffffffffffffffffffff1690506000610cc28261143a565b905080600960008473ffffffffffffffffffffffffffffffffffffffff1673ffffffffffffffffffffffffffffffffffffffff16815260200190815260200160002054610d0f9190612881565b600960008473ffffffffffffffffffffffffffffffffffffffff1673ffffffffffffffffffffffffffffffffffffffff168152602001908152602001600020819055505050600181610d619190612881565b9050610c41565b50565b60008060008373ffffffffffffffffffffffffffffffffffffffff1673ffffffffffffffffffffffffffffffffffffffff168152602001908152602001600020549050919050565b610dbb611739565b73ffffffffffffffffffffffffffffffffffffffff16610dd9610e43565b73ffffffffffffffffffffffffffffffffffffffff1614610e2f576040517f08c379a0000000000000000000000000000000000000000000000000000000008152600401610e269061276f565b60405180910390fd5b610e396000611d79565b565b600033905090565b6000600560009054906101000a900473ffffffffffffffffffffffffffffffffffffffff16905090565b606060048054610e7c90612a1e565b80601f0160208091040260200160405190810160405280929190818152602001828054610ea890612a1e565b8015610ef55780601f10610eca57610100808354040283529160200191610ef5565b820191906000526020600020905b815481529060010190602001808311610ed857829003601f168201915b5050505050905090565b600080610f0a611739565b90506000600160008373ffffffffffffffffffffffffffffffffffffffff1673ffffffffffffffffffffffffffffffffffffffff16815260200190815260200160002060008673ffffffffffffffffffffffffffffffffffffffff1673ffffffffffffffffffffffffffffffffffffffff16815260200190815260200160002054905083811015610fd0576040517f08c379a0000000000000000000000000000000000000000000000000000000008152600401610fc7906127ef565b60405180910390fd5b610fdd8286868403611741565b60019250505092915050565b610ff33382611e3f565b6000600860003373ffffffffffffffffffffffffffffffffffffffff1673ffffffffffffffffffffffffffffffffffffffff16815260200190815260200160002080549050141561104857611047336114ec565b5b600860003373ffffffffffffffffffffffffffffffffffffffff1673ffffffffffffffffffffffffffffffffffffffff1681526020019081526020016000208190806001815401808255809150506001900390600052602060002001600090919091909150557f11f345af95ecd0e0b171a601aa00c60d1666073e7a3f84e4f0609ea7d98fbf6f336040516110dd919061262e565b60405180910390a150565b6000806110f3611739565b9050611100818585611998565b600191505092915050565b6000806000905060005b600860008573ffffffffffffffffffffffffffffffffffffffff1673ffffffffffffffffffffffffffffffffffffffff1681526020019081526020016000208054905081101561120257600860008573ffffffffffffffffffffffffffffffffffffffff1673ffffffffffffffffffffffffffffffffffffffff16815260200190815260200160002081815481106111d6577f4e487b7100000000000000000000000000000000000000000000000000000000600052603260045260246000fd5b9060005260206000200154826111ec9190612881565b91506001816111fb9190612881565b9050611115565b5080915050919050565b60008061121883611567565b91509150811561138857600760016007805490506112369190612962565b8154811061126d577f4e487b7100000000000000000000000000000000000000000000000000000000600052603260045260246000fd5b9060005260206000200160009054906101000a900473ffffffffffffffffffffffffffffffffffffffff16600782815481106112d2577f4e487b7100000000000000000000000000000000000000000000000000000000600052603260045260246000fd5b9060005260206000200160006101000a81548173ffffffffffffffffffffffffffffffffffffffff021916908373ffffffffffffffffffffffffffffffffffffffff1602179055506007805480611352577f4e487b7100000000000000000000000000000000000000000000000000000000600052603160045260246000fd5b6001900381819060005260206000200160006101000a81549073ffffffffffffffffffffffffffffffffffffffff021916905590555b505050565b6000806000905060005b60078054905081101561143257611411600782815481106113e1577f4e487b7100000000000000000000000000000000000000000000000000000000600052603260045260246000fd5b9060005260206000200160009054906101000a900473ffffffffffffffffffffffffffffffffffffffff1661110b565b8261141c9190612881565b915060018161142b9190612881565b9050611397565b508091505090565b6000606460065461144a8461110b565b6114549190612908565b61145e91906128d7565b9050919050565b6000600160008473ffffffffffffffffffffffffffffffffffffffff1673ffffffffffffffffffffffffffffffffffffffff16815260200190815260200160002060008373ffffffffffffffffffffffffffffffffffffffff1673ffffffffffffffffffffffffffffffffffffffff16815260200190815260200160002054905092915050565b60006114f782611567565b50905080611563576007829080600181540180825580915050600190039060005260206000200160009091909190916101000a81548173ffffffffffffffffffffffffffffffffffffffff021916908373ffffffffffffffffffffffffffffffffffffffff1602179055505b5050565b60008060005b60078054905081101561163357600781815481106115b4577f4e487b7100000000000000000000000000000000000000000000000000000000600052603260045260246000fd5b9060005260206000200160009054906101000a900473ffffffffffffffffffffffffffffffffffffffff1673ffffffffffffffffffffffffffffffffffffffff168473ffffffffffffffffffffffffffffffffffffffff16141561161f57600181925092505061163c565b60018161162c9190612881565b905061156d565b50600080915091505b915091565b611649611739565b73ffffffffffffffffffffffffffffffffffffffff16611667610e43565b73ffffffffffffffffffffffffffffffffffffffff16146116bd576040517f08c379a00000000000000000000000000000000000000000000000000000000081526004016116b49061276f565b60405180910390fd5b600073ffffffffffffffffffffffffffffffffffffffff168173ffffffffffffffffffffffffffffffffffffffff16141561172d576040517f08c379a0000000000000000000000000000000000000000000000000000000008152600401611724906126ef565b60405180910390fd5b61173681611d79565b50565b600033905090565b600073ffffffffffffffffffffffffffffffffffffffff168373ffffffffffffffffffffffffffffffffffffffff1614156117b1576040517f08c379a00000000000000000000000000000000000000000000000000000000081526004016117a8906127cf565b60405180910390fd5b600073ffffffffffffffffffffffffffffffffffffffff168273ffffffffffffffffffffffffffffffffffffffff161415611821576040517f08c379a00000000000000000000000000000000000000000000000000000000081526004016118189061270f565b60405180910390fd5b80600160008573ffffffffffffffffffffffffffffffffffffffff1673ffffffffffffffffffffffffffffffffffffffff16815260200190815260200160002060008473ffffffffffffffffffffffffffffffffffffffff1673ffffffffffffffffffffffffffffffffffffffff168152602001908152602001600020819055508173ffffffffffffffffffffffffffffffffffffffff168373ffffffffffffffffffffffffffffffffffffffff167f8c5be1e5ebec7d5bd14f71427d1e84f3dd0314c0f7b2291e5b200ac8c7c3b925836040516118ff919061282f565b60405180910390a3505050565b60006119188484611465565b90507fffffffffffffffffffffffffffffffffffffffffffffffffffffffffffffffff81146119925781811015611984576040517f08c379a000000000000000000000000000000000000000000000000000000000815260040161197b9061272f565b60405180910390fd5b6119918484848403611741565b5b50505050565b600073ffffffffffffffffffffffffffffffffffffffff168373ffffffffffffffffffffffffffffffffffffffff161415611a08576040517f08c379a00000000000000000000000000000000000000000000000000000000081526004016119ff906127af565b60405180910390fd5b600073ffffffffffffffffffffffffffffffffffffffff168273ffffffffffffffffffffffffffffffffffffffff161415611a78576040517f08c379a0000000000000000000000000000000000000000000000000000000008152600401611a6f906126af565b60405180910390fd5b611a83838383612016565b60008060008573ffffffffffffffffffffffffffffffffffffffff1673ffffffffffffffffffffffffffffffffffffffff16815260200190815260200160002054905081811015611b09576040517f08c379a0000000000000000000000000000000000000000000000000000000008152600401611b009061274f565b60405180910390fd5b8181036000808673ffffffffffffffffffffffffffffffffffffffff1673ffffffffffffffffffffffffffffffffffffffff16815260200190815260200160002081905550816000808573ffffffffffffffffffffffffffffffffffffffff1673ffffffffffffffffffffffffffffffffffffffff1681526020019081526020016000206000828254611b9c9190612881565b925050819055508273ffffffffffffffffffffffffffffffffffffffff168473ffffffffffffffffffffffffffffffffffffffff167fddf252ad1be2c89b69c2b068fc378daa952ba7f163c4a11628f55a4df523b3ef84604051611c00919061282f565b60405180910390a3611c1384848461201b565b50505050565b600073ffffffffffffffffffffffffffffffffffffffff168273ffffffffffffffffffffffffffffffffffffffff161415611c89576040517f08c379a0000000000000000000000000000000000000000000000000000000008152600401611c809061280f565b60405180910390fd5b611c9560008383612016565b8060026000828254611ca79190612881565b92505081905550806000808473ffffffffffffffffffffffffffffffffffffffff1673ffffffffffffffffffffffffffffffffffffffff1681526020019081526020016000206000828254611cfc9190612881565b925050819055508173ffffffffffffffffffffffffffffffffffffffff16600073ffffffffffffffffffffffffffffffffffffffff167fddf252ad1be2c89b69c2b068fc378daa952ba7f163c4a11628f55a4df523b3ef83604051611d61919061282f565b60405180910390a3611d756000838361201b565b5050565b6000600560009054906101000a900473ffffffffffffffffffffffffffffffffffffffff16905081600560006101000a81548173ffffffffffffffffffffffffffffffffffffffff021916908373ffffffffffffffffffffffffffffffffffffffff1602179055508173ffffffffffffffffffffffffffffffffffffffff168173ffffffffffffffffffffffffffffffffffffffff167f8be0079c531659141344cd1fd0a4f28419497f9722a3daafe3b4186f6b6457e060405160405180910390a35050565b600073ffffffffffffffffffffffffffffffffffffffff168273ffffffffffffffffffffffffffffffffffffffff161415611eaf576040517f08c379a0000000000000000000000000000000000000000000000000000000008152600401611ea69061278f565b60405180910390fd5b611ebb82600083612016565b60008060008473ffffffffffffffffffffffffffffffffffffffff1673ffffffffffffffffffffffffffffffffffffffff16815260200190815260200160002054905081811015611f41576040517f08c379a0000000000000000000000000000000000000000000000000000000008152600401611f38906126cf565b60405180910390fd5b8181036000808573ffffffffffffffffffffffffffffffffffffffff1673ffffffffffffffffffffffffffffffffffffffff168152602001908152602001600020819055508160026000828254611f989190612962565b92505081905550600073ffffffffffffffffffffffffffffffffffffffff168373ffffffffffffffffffffffffffffffffffffffff167fddf252ad1be2c89b69c2b068fc378daa952ba7f163c4a11628f55a4df523b3ef84604051611ffd919061282f565b60405180910390a36120118360008461201b565b505050565b505050565b505050565b60008135905061202f81612aee565b92915050565b60008135905061204481612b05565b92915050565b60006020828403121561205c57600080fd5b600061206a84828501612020565b91505092915050565b6000806040838503121561208657600080fd5b600061209485828601612020565b92505060206120a585828601612020565b9150509250929050565b6000806000606084860312156120c457600080fd5b60006120d286828701612020565b93505060206120e386828701612020565b92505060406120f486828701612035565b9150509250925092565b6000806040838503121561211157600080fd5b600061211f85828601612020565b925050602061213085828601612035565b9150509250929050565b60006020828403121561214c57600080fd5b600061215a84828501612035565b91505092915050565b61216c81612996565b82525050565b61217b816129a8565b82525050565b600061218c82612865565b6121968185612870565b93506121a68185602086016129eb565b6121af81612add565b840191505092915050565b60006121c7602383612870565b91507f45524332303a207472616e7366657220746f20746865207a65726f206164647260008301527f65737300000000000000000000000000000000000000000000000000000000006020830152604082019050919050565b600061222d602283612870565b91507f45524332303a206275726e20616d6f756e7420657863656564732062616c616e60008301527f63650000000000000000000000000000000000000000000000000000000000006020830152604082019050919050565b6000612293602683612870565b91507f4f776e61626c653a206e6577206f776e657220697320746865207a65726f206160008301527f64647265737300000000000000000000000000000000000000000000000000006020830152604082019050919050565b60006122f9602283612870565b91507f45524332303a20617070726f766520746f20746865207a65726f20616464726560008301527f73730000000000000000000000000000000000000000000000000000000000006020830152604082019050919050565b600061235f601d83612870565b91507f45524332303a20696e73756666696369656e7420616c6c6f77616e63650000006000830152602082019050919050565b600061239f602683612870565b91507f45524332303a207472616e7366657220616d6f756e742065786365656473206260008301527f616c616e636500000000000000000000000000000000000000000000000000006020830152604082019050919050565b6000612405602083612870565b91507f4f776e61626c653a2063616c6c6572206973206e6f7420746865206f776e65726000830152602082019050919050565b6000612445602183612870565b91507f45524332303a206275726e2066726f6d20746865207a65726f2061646472657360008301527f73000000000000000000000000000000000000000000000000000000000000006020830152604082019050919050565b60006124ab602583612870565b91507f45524332303a207472616e736665722066726f6d20746865207a65726f20616460008301527f64726573730000000000000000000000000000000000000000000000000000006020830152604082019050919050565b6000612511602483612870565b91507f45524332303a20617070726f76652066726f6d20746865207a65726f2061646460008301527f72657373000000000000000000000000000000000000000000000000000000006020830152604082019050919050565b6000612577602583612870565b91507f45524332303a2064656372656173656420616c6c6f77616e63652062656c6f7760008301527f207a65726f0000000000000000000000000000000000000000000000000000006020830152604082019050919050565b60006125dd601f83612870565b91507f45524332303a206d696e7420746f20746865207a65726f2061646472657373006000830152602082019050919050565b612619816129d4565b82525050565b612628816129de565b82525050565b60006020820190506126436000830184612163565b92915050565b600060208201905061265e6000830184612172565b92915050565b60006040820190506126796000830185612172565b6126866020830184612610565b9392505050565b600060208201905081810360008301526126a78184612181565b905092915050565b600060208201905081810360008301526126c8816121ba565b9050919050565b600060208201905081810360008301526126e881612220565b9050919050565b6000602082019050818103600083015261270881612286565b9050919050565b60006020820190508181036000830152612728816122ec565b9050919050565b6000602082019050818103600083015261274881612352565b9050919050565b6000602082019050818103600083015261276881612392565b9050919050565b60006020820190508181036000830152612788816123f8565b9050919050565b600060208201905081810360008301526127a881612438565b9050919050565b600060208201905081810360008301526127c88161249e565b9050919050565b600060208201905081810360008301526127e881612504565b9050919050565b600060208201905081810360008301526128088161256a565b9050919050565b60006020820190508181036000830152612828816125d0565b9050919050565b60006020820190506128446000830184612610565b92915050565b600060208201905061285f600083018461261f565b92915050565b600081519050919050565b600082825260208201905092915050565b600061288c826129d4565b9150612897836129d4565b9250827fffffffffffffffffffffffffffffffffffffffffffffffffffffffffffffffff038211156128cc576128cb612a50565b5b828201905092915050565b60006128e2826129d4565b91506128ed836129d4565b9250826128fd576128fc612a7f565b5b828204905092915050565b6000612913826129d4565b915061291e836129d4565b9250817fffffffffffffffffffffffffffffffffffffffffffffffffffffffffffffffff048311821515161561295757612956612a50565b5b828202905092915050565b600061296d826129d4565b9150612978836129d4565b92508282101561298b5761298a612a50565b5b828203905092915050565b60006129a1826129b4565b9050919050565b60008115159050919050565b600073ffffffffffffffffffffffffffffffffffffffff82169050919050565b6000819050919050565b600060ff82169050919050565b60005b83811015612a095780820151818401526020810190506129ee565b83811115612a18576000848401525b50505050565b60006002820490506001821680612a3657607f821691505b60208210811415612a4a57612a49612aae565b5b50919050565b7f4e487b7100000000000000000000000000000000000000000000000000000000600052601160045260246000fd5b7f4e487b7100000000000000000000000000000000000000000000000000000000600052601260045260246000fd5b7f4e487b7100000000000000000000000000000000000000000000000000000000600052602260045260246000fd5b6000601f19601f8301169050919050565b612af781612996565b8114612b0257600080fd5b50565b612b0e816129d4565b8114612b1957600080fd5b5056fea2646970667358221220472595394fdd0b848d7d57fa44c0a008c8326a1bd8a64a73fca39745d7aa8e7464736f6c63430008000033",
  "linkReferences": {},
  "deployedLinkReferences": {}
}